{
  "contractName": "Inbox",
  "abi": [
    {
      "inputs": [],
      "stateMutability": "nonpayable",
      "type": "constructor"
    },
    {
      "anonymous": false,
      "inputs": [
        {
          "indexed": false,
          "internalType": "string",
          "name": "response",
          "type": "string"
        }
      ],
      "name": "inboxResponse",
      "type": "event"
    },
    {
      "anonymous": false,
      "inputs": [
        {
          "indexed": false,
          "internalType": "string",
          "name": "_ipfsHash",
          "type": "string"
        },
        {
          "indexed": false,
          "internalType": "string",
          "name": "_address",
          "type": "string"
        }
      ],
      "name": "ipfsSent",
      "type": "event"
    },
    {
      "inputs": [
        {
          "internalType": "string",
          "name": "",
          "type": "string"
        }
      ],
      "name": "ipfsInbox",
      "outputs": [
        {
          "internalType": "string",
          "name": "",
          "type": "string"
        }
      ],
      "stateMutability": "view",
      "type": "function",
      "constant": true
    },
    {
      "inputs": [
        {
          "internalType": "string",
          "name": "_address",
          "type": "string"
        },
        {
          "internalType": "string",
          "name": "_ipfsHash",
          "type": "string"
        }
      ],
      "name": "sendIPFS",
      "outputs": [],
      "stateMutability": "nonpayable",
      "type": "function"
    },
    {
      "inputs": [
        {
          "internalType": "string",
          "name": "_address",
          "type": "string"
        }
      ],
      "name": "getHash",
      "outputs": [
        {
          "internalType": "string",
          "name": "",
          "type": "string"
        }
      ],
      "stateMutability": "view",
      "type": "function",
      "constant": true
    }
  ],
  "bytecode": "0x608060405234801561001057600080fd5b506109b6806100206000396000f3fe608060405234801561001057600080fd5b50600436106100415760003560e01c80633bc86509146100465780635b6beeb914610062578063d9fb97f714610092575b600080fd5b610060600480360381019061005b91906104ac565b6100c2565b005b61007c60048036038101906100779190610524565b6101e7565b60405161008991906105ec565b60405180910390f35b6100ac60048036038101906100a79190610524565b61029c565b6040516100b991906105ec565b60405180910390f35b6000826040516100d2919061064a565b908152602001604051809103902080546100eb90610690565b80601f016020809104026020016040519081016040528092919081815260200182805461011790610690565b80156101645780601f1061013957610100808354040283529160200191610164565b820191906000526020600020905b81548152906001019060200180831161014757829003601f168201915b50505050506000819050600081511461017c57600080fd5b8260008560405161018d919061064a565b908152602001604051809103902090816101a79190610877565b507fe20751acac1c1604f322f90c67a302e99b44a472645e625269c08832cded234083856040516101d9929190610949565b60405180910390a150505050565b6060600080836040516101fa919061064a565b9081526020016040518091039020805461021390610690565b80601f016020809104026020016040519081016040528092919081815260200182805461023f90610690565b801561028c5780601f106102615761010080835404028352916020019161028c565b820191906000526020600020905b81548152906001019060200180831161026f57829003601f168201915b5050505050905080915050919050565b60008180516020810182018051848252602083016020850120818352809550505050505060009150905080546102d190610690565b80601f01602080910402602001604051908101604052809291908181526020018280546102fd90610690565b801561034a5780601f1061031f5761010080835404028352916020019161034a565b820191906000526020600020905b81548152906001019060200180831161032d57829003601f168201915b505050505081565b6000604051905090565b600080fd5b600080fd5b600080fd5b600080fd5b6000601f19601f8301169050919050565b7f4e487b7100000000000000000000000000000000000000000000000000000000600052604160045260246000fd5b6103b982610370565b810181811067ffffffffffffffff821117156103d8576103d7610381565b5b80604052505050565b60006103eb610352565b90506103f782826103b0565b919050565b600067ffffffffffffffff82111561041757610416610381565b5b61042082610370565b9050602081019050919050565b82818337600083830152505050565b600061044f61044a846103fc565b6103e1565b90508281526020810184848401111561046b5761046a61036b565b5b61047684828561042d565b509392505050565b600082601f83011261049357610492610366565b5b81356104a384826020860161043c565b91505092915050565b600080604083850312156104c3576104c261035c565b5b600083013567ffffffffffffffff8111156104e1576104e0610361565b5b6104ed8582860161047e565b925050602083013567ffffffffffffffff81111561050e5761050d610361565b5b61051a8582860161047e565b9150509250929050565b60006020828403121561053a5761053961035c565b5b600082013567ffffffffffffffff81111561055857610557610361565b5b6105648482850161047e565b91505092915050565b600081519050919050565b600082825260208201905092915050565b60005b838110156105a757808201518184015260208101905061058c565b60008484015250505050565b60006105be8261056d565b6105c88185610578565b93506105d8818560208601610589565b6105e181610370565b840191505092915050565b6000602082019050818103600083015261060681846105b3565b905092915050565b600081905092915050565b60006106248261056d565b61062e818561060e565b935061063e818560208601610589565b80840191505092915050565b60006106568284610619565b915081905092915050565b7f4e487b7100000000000000000000000000000000000000000000000000000000600052602260045260246000fd5b600060028204905060018216806106a857607f821691505b6020821081036106bb576106ba610661565b5b50919050565b60008190508160005260206000209050919050565b60006020601f8301049050919050565b600082821b905092915050565b6000600883026107237fffffffffffffffffffffffffffffffffffffffffffffffffffffffffffffffff826106e6565b61072d86836106e6565b95508019841693508086168417925050509392505050565b6000819050919050565b6000819050919050565b600061077461076f61076a84610745565b61074f565b610745565b9050919050565b6000819050919050565b61078e83610759565b6107a261079a8261077b565b8484546106f3565b825550505050565b600090565b6107b76107aa565b6107c2818484610785565b505050565b5b818110156107e6576107db6000826107af565b6001810190506107c8565b5050565b601f82111561082b576107fc816106c1565b610805846106d6565b81016020851015610814578190505b610828610820856106d6565b8301826107c7565b50505b505050565b600082821c905092915050565b600061084e60001984600802610830565b1980831691505092915050565b6000610867838361083d565b9150826002028217905092915050565b6108808261056d565b67ffffffffffffffff81111561089957610898610381565b5b6108a38254610690565b6108ae8282856107ea565b600060209050601f8311600181146108e157600084156108cf578287015190505b6108d9858261085b565b865550610941565b601f1984166108ef866106c1565b60005b82811015610917578489015182556001820191506020850194506020810190506108f2565b868310156109345784890151610930601f89168261083d565b8355505b6001600288020188555050505b505050505050565b6000604082019050818103600083015261096381856105b3565b9050818103602083015261097781846105b3565b9050939250505056fea26469706673582212208555caab82cb0b33bbe740a32dfc612463b23c24a77af2c60582b809818c7b6d64736f6c63430008110033",
  "immutableReferences": {},
  "source": "// SPDX-License-Identifier: UNLICENSED\npragma solidity ^0.8.10;\n\n\ncontract Inbox{\n    //Structure\n    mapping (string=>string) public ipfsInbox;\n    //Events\n    event ipfsSent(string _ipfsHash, string _address);\n    event inboxResponse(string response);\n    //Modifiers\n    modifier notFull (string memory _string) {\n    bytes memory stringTest = bytes(_string);\n    require(stringTest.length==0);\n    _;\n    }\n    // An empty constructor that creates an instance of the conteact\n    constructor() { }\n    //takes in receiver's address and IPFS hash. Places the IPFSadress in the receiver's inbox\n    function sendIPFS(string memory _address, string memory _ipfsHash) notFull(ipfsInbox[_address]) public{\n        ipfsInbox[_address] = _ipfsHash;\n        emit ipfsSent(_ipfsHash, _address);\n    }\n    //retrieves hash\n    function getHash(string memory _address) public view returns(string memory) {\n        string memory ipfs_hash=ipfsInbox[_address];\n         //emit inboxResponse(ipfs_hash);\n        return ipfs_hash;\n    }\n}\n",
  "sourcePath": "/Users/a10660927/Desktop/rupak/blockchain/nodejs-api-ethereum-blockchain/contracts/Inbox.sol",
  "compiler": {
    "name": "solc",
    "version": "0.8.17+commit.8df45f5f.Emscripten.clang"
  },
  "schemaVersion": "3.4.11",
  "updatedAt": "2022-12-18T16:19:35.792Z",
  "networkType": "ethereum",
  "devdoc": {
    "kind": "dev",
    "methods": {},
    "version": 1
  },
  "userdoc": {
    "kind": "user",
    "methods": {},
    "version": 1
  }
}